{
  "_format": "hh-sol-artifact-1",
  "contractName": "Blog",
  "sourceName": "contracts/Blog.sol",
  "abi": [
    {
      "inputs": [
        {
          "internalType": "string",
          "name": "_name",
          "type": "string"
        }
      ],
      "stateMutability": "nonpayable",
      "type": "constructor"
    },
    {
      "anonymous": false,
      "inputs": [
        {
          "indexed": false,
          "internalType": "uint256",
          "name": "id",
          "type": "uint256"
        },
        {
          "indexed": false,
          "internalType": "string",
          "name": "title",
          "type": "string"
        },
        {
          "indexed": false,
          "internalType": "string",
          "name": "hash",
          "type": "string"
        }
      ],
      "name": "PostCreated",
      "type": "event"
    },
    {
      "anonymous": false,
      "inputs": [
        {
          "indexed": false,
          "internalType": "uint256",
          "name": "id",
          "type": "uint256"
        },
        {
          "indexed": false,
          "internalType": "string",
          "name": "title",
          "type": "string"
        },
        {
          "indexed": false,
          "internalType": "string",
          "name": "hash",
          "type": "string"
        },
        {
          "indexed": false,
          "internalType": "bool",
          "name": "published",
          "type": "bool"
        }
      ],
      "name": "PostUpdated",
      "type": "event"
    },
    {
      "inputs": [
        {
          "internalType": "string",
          "name": "title",
          "type": "string"
        },
        {
          "internalType": "string",
          "name": "hash",
          "type": "string"
        }
      ],
      "name": "createPost",
      "outputs": [],
      "stateMutability": "nonpayable",
      "type": "function"
    },
    {
      "inputs": [
        {
          "internalType": "string",
          "name": "hash",
          "type": "string"
        }
      ],
      "name": "fetchPost",
      "outputs": [
        {
          "components": [
            {
              "internalType": "uint256",
              "name": "id",
              "type": "uint256"
            },
            {
              "internalType": "string",
              "name": "title",
              "type": "string"
            },
            {
              "internalType": "string",
              "name": "content",
              "type": "string"
            },
            {
              "internalType": "bool",
              "name": "published",
              "type": "bool"
            }
          ],
          "internalType": "struct Blog.Post",
          "name": "",
          "type": "tuple"
        }
      ],
      "stateMutability": "view",
      "type": "function"
    },
    {
      "inputs": [],
      "name": "fetchPosts",
      "outputs": [
        {
          "components": [
            {
              "internalType": "uint256",
              "name": "id",
              "type": "uint256"
            },
            {
              "internalType": "string",
              "name": "title",
              "type": "string"
            },
            {
              "internalType": "string",
              "name": "content",
              "type": "string"
            },
            {
              "internalType": "bool",
              "name": "published",
              "type": "bool"
            }
          ],
          "internalType": "struct Blog.Post[]",
          "name": "",
          "type": "tuple[]"
        }
      ],
      "stateMutability": "view",
      "type": "function"
    },
    {
      "inputs": [],
      "name": "name",
      "outputs": [
        {
          "internalType": "string",
          "name": "",
          "type": "string"
        }
      ],
      "stateMutability": "view",
      "type": "function"
    },
    {
      "inputs": [],
      "name": "owner",
      "outputs": [
        {
          "internalType": "address",
          "name": "",
          "type": "address"
        }
      ],
      "stateMutability": "view",
      "type": "function"
    },
    {
      "inputs": [
        {
          "internalType": "address",
          "name": "newOwner",
          "type": "address"
        }
      ],
      "name": "transferOwnership",
      "outputs": [],
      "stateMutability": "nonpayable",
      "type": "function"
    },
    {
      "inputs": [
        {
          "internalType": "string",
          "name": "_name",
          "type": "string"
        }
      ],
      "name": "updateName",
      "outputs": [],
      "stateMutability": "nonpayable",
      "type": "function"
    },
    {
      "inputs": [
        {
          "internalType": "uint256",
          "name": "postId",
          "type": "uint256"
        },
        {
          "internalType": "string",
          "name": "title",
          "type": "string"
        },
        {
          "internalType": "string",
          "name": "hash",
          "type": "string"
        },
        {
          "internalType": "bool",
          "name": "published",
          "type": "bool"
        }
      ],
      "name": "updatePost",
      "outputs": [],
      "stateMutability": "nonpayable",
      "type": "function"
    }
  ],
  "bytecode": "0x608060405234801561001057600080fd5b50604051611e98380380611e9883398181016040528101906100329190610346565b6100776040518060400160405280601981526020017f4465706c6f79696e6720426c6f672077697468206e616d653a00000000000000815250826100ce60201b60201c565b806000908161008691906105b0565b5033600160006101000a81548173ffffffffffffffffffffffffffffffffffffffff021916908373ffffffffffffffffffffffffffffffffffffffff16021790555050610732565b61016c82826040516024016100e49291906106cc565b6040516020818303038152906040527f4b5c4277000000000000000000000000000000000000000000000000000000007bffffffffffffffffffffffffffffffffffffffffffffffffffffffff19166020820180517bffffffffffffffffffffffffffffffffffffffffffffffffffffffff838183161783525050505061017060201b60201c565b5050565b6101918161018c61019460201b610a1e176101b560201b60201c565b60201c565b50565b60006a636f6e736f6c652e6c6f679050600080835160208501845afa505050565b6101c760201b610a3f17819050919050565b6101cf610703565b565b6000604051905090565b600080fd5b600080fd5b600080fd5b600080fd5b6000601f19601f8301169050919050565b7f4e487b7100000000000000000000000000000000000000000000000000000000600052604160045260246000fd5b610238826101ef565b810181811067ffffffffffffffff8211171561025757610256610200565b5b80604052505050565b600061026a6101d1565b9050610276828261022f565b919050565b600067ffffffffffffffff82111561029657610295610200565b5b61029f826101ef565b9050602081019050919050565b60005b838110156102ca5780820151818401526020810190506102af565b60008484015250505050565b60006102e96102e48461027b565b610260565b905082815260208101848484011115610305576103046101ea565b5b6103108482856102ac565b509392505050565b600082601f83011261032d5761032c6101e5565b5b815161033d8482602086016102d6565b91505092915050565b60006020828403121561035c5761035b6101db565b5b600082015167ffffffffffffffff81111561037a576103796101e0565b5b61038684828501610318565b91505092915050565b600081519050919050565b7f4e487b7100000000000000000000000000000000000000000000000000000000600052602260045260246000fd5b600060028204905060018216806103e157607f821691505b6020821081036103f4576103f361039a565b5b50919050565b60008190508160005260206000209050919050565b60006020601f8301049050919050565b600082821b905092915050565b60006008830261045c7fffffffffffffffffffffffffffffffffffffffffffffffffffffffffffffffff8261041f565b610466868361041f565b95508019841693508086168417925050509392505050565b6000819050919050565b6000819050919050565b60006104ad6104a86104a38461047e565b610488565b61047e565b9050919050565b6000819050919050565b6104c783610492565b6104db6104d3826104b4565b84845461042c565b825550505050565b600090565b6104f06104e3565b6104fb8184846104be565b505050565b5b8181101561051f576105146000826104e8565b600181019050610501565b5050565b601f82111561056457610535816103fa565b61053e8461040f565b8101602085101561054d578190505b6105616105598561040f565b830182610500565b50505b505050565b600082821c905092915050565b600061058760001984600802610569565b1980831691505092915050565b60006105a08383610576565b9150826002028217905092915050565b6105b98261038f565b67ffffffffffffffff8111156105d2576105d1610200565b5b6105dc82546103c9565b6105e7828285610523565b600060209050601f83116001811461061a5760008415610608578287015190505b6106128582610594565b86555061067a565b601f198416610628866103fa565b60005b828110156106505784890151825560018201915060208501945060208101905061062b565b8683101561066d5784890151610669601f891682610576565b8355505b6001600288020188555050505b505050505050565b600082825260208201905092915050565b600061069e8261038f565b6106a88185610682565b93506106b88185602086016102ac565b6106c1816101ef565b840191505092915050565b600060408201905081810360008301526106e68185610693565b905081810360208301526106fa8184610693565b90509392505050565b7f4e487b7100000000000000000000000000000000000000000000000000000000600052605160045260246000fd5b611757806107416000396000f3fe608060405234801561001057600080fd5b50600436106100885760003560e01c80638da5cb5b1161005b5780638da5cb5b14610113578063abaddd7f14610131578063cd349fe91461014f578063f2fde38b1461016b57610088565b806306fdde031461008d578063392338f5146100ab57806344828659146100c757806384da92a7146100f7575b600080fd5b610095610187565b6040516100a29190610b03565b60405180910390f35b6100c560048036038101906100c09190610c6e565b610215565b005b6100e160048036038101906100dc9190610ce6565b6103b3565b6040516100ee9190610e17565b60405180910390f35b610111600480360381019061010c9190610ce6565b610534565b005b61011b610547565b6040516101289190610e7a565b60405180910390f35b61013961056d565b6040516101469190610fc1565b60405180910390f35b6101696004803603810190610164919061103b565b61078c565b005b61018560048036038101906101809190611106565b610980565b005b6000805461019490611162565b80601f01602080910402602001604051908101604052809291908181526020018280546101c090611162565b801561020d5780601f106101e25761010080835404028352916020019161020d565b820191906000526020600020905b8154815290600101906020018083116101f057829003601f168201915b505050505081565b600160009054906101000a900473ffffffffffffffffffffffffffffffffffffffff1673ffffffffffffffffffffffffffffffffffffffff163373ffffffffffffffffffffffffffffffffffffffff161461026f57600080fd5b60026000815480929190610282906111c2565b9190505550600060025490506000600360008381526020019081526020016000209050818160000181905550838160010190816102bf91906113b6565b5060018160030160006101000a81548160ff021916908315150217905550828160020190816102ee91906113b6565b508060048460405161030091906114c4565b9081526020016040518091039020600082015481600001556001820181600101908161032c91906114f1565b506002820181600201908161034191906114f1565b506003820160009054906101000a900460ff168160030160006101000a81548160ff0219169083151502179055509050507fe6851f0b99a9d86e5d68a97f65218980851216ce297f789c6b6b7e82ca1d90c88285856040516103a5939291906115e8565b60405180910390a150505050565b6103bb610a49565b6004826040516103cb91906114c4565b9081526020016040518091039020604051806080016040529081600082015481526020016001820180546103fe90611162565b80601f016020809104026020016040519081016040528092919081815260200182805461042a90611162565b80156104775780601f1061044c57610100808354040283529160200191610477565b820191906000526020600020905b81548152906001019060200180831161045a57829003601f168201915b5050505050815260200160028201805461049090611162565b80601f01602080910402602001604051908101604052809291908181526020018280546104bc90611162565b80156105095780601f106104de57610100808354040283529160200191610509565b820191906000526020600020905b8154815290600101906020018083116104ec57829003601f168201915b505050505081526020016003820160009054906101000a900460ff1615151515815250509050919050565b806000908161054391906113b6565b5050565b600160009054906101000a900473ffffffffffffffffffffffffffffffffffffffff1681565b60606000600254905060008167ffffffffffffffff81111561059257610591610b43565b5b6040519080825280602002602001820160405280156105cb57816020015b6105b8610a49565b8152602001906001900390816105b05790505b50905060005b828110156107835760006001826105e8919061162d565b90506000600360008381526020019081526020016000209050806040518060800160405290816000820154815260200160018201805461062790611162565b80601f016020809104026020016040519081016040528092919081815260200182805461065390611162565b80156106a05780601f10610675576101008083540402835291602001916106a0565b820191906000526020600020905b81548152906001019060200180831161068357829003601f168201915b505050505081526020016002820180546106b990611162565b80601f01602080910402602001604051908101604052809291908181526020018280546106e590611162565b80156107325780601f1061070757610100808354040283529160200191610732565b820191906000526020600020905b81548152906001019060200180831161071557829003601f168201915b505050505081526020016003820160009054906101000a900460ff16151515158152505084848151811061076957610768611661565b5b6020026020010181905250505080806001019150506105d1565b50809250505090565b600160009054906101000a900473ffffffffffffffffffffffffffffffffffffffff1673ffffffffffffffffffffffffffffffffffffffff163373ffffffffffffffffffffffffffffffffffffffff16146107e657600080fd5b60006003600086815260200190815260200160002090508381600101908161080e91906113b6565b50818160030160006101000a81548160ff0219169083151502179055508281600201908161083c91906113b6565b508060036000878152602001908152602001600020600082015481600001556001820181600101908161086f91906114f1565b506002820181600201908161088491906114f1565b506003820160009054906101000a900460ff168160030160006101000a81548160ff021916908315150217905550905050806004846040516108c691906114c4565b908152602001604051809103902060008201548160000155600182018160010190816108f291906114f1565b506002820181600201908161090791906114f1565b506003820160009054906101000a900460ff168160030160006101000a81548160ff0219169083151502179055509050507f9f8eb93fc073102bbd3072664634ab200707a4f11d94aace9cc8d0e4d019eff58160000154858585604051610971949392919061169f565b60405180910390a15050505050565b600160009054906101000a900473ffffffffffffffffffffffffffffffffffffffff1673ffffffffffffffffffffffffffffffffffffffff163373ffffffffffffffffffffffffffffffffffffffff16146109da57600080fd5b80600160006101000a81548173ffffffffffffffffffffffffffffffffffffffff021916908373ffffffffffffffffffffffffffffffffffffffff16021790555050565b60006a636f6e736f6c652e6c6f679050600080835160208501845afa505050565b610a476116f2565b565b60405180608001604052806000815260200160608152602001606081526020016000151581525090565b600081519050919050565b600082825260208201905092915050565b60005b83811015610aad578082015181840152602081019050610a92565b60008484015250505050565b6000601f19601f8301169050919050565b6000610ad582610a73565b610adf8185610a7e565b9350610aef818560208601610a8f565b610af881610ab9565b840191505092915050565b60006020820190508181036000830152610b1d8184610aca565b905092915050565b6000604051905090565b600080fd5b600080fd5b600080fd5b600080fd5b7f4e487b7100000000000000000000000000000000000000000000000000000000600052604160045260246000fd5b610b7b82610ab9565b810181811067ffffffffffffffff82111715610b9a57610b99610b43565b5b80604052505050565b6000610bad610b25565b9050610bb98282610b72565b919050565b600067ffffffffffffffff821115610bd957610bd8610b43565b5b610be282610ab9565b9050602081019050919050565b82818337600083830152505050565b6000610c11610c0c84610bbe565b610ba3565b905082815260208101848484011115610c2d57610c2c610b3e565b5b610c38848285610bef565b509392505050565b600082601f830112610c5557610c54610b39565b5b8135610c65848260208601610bfe565b91505092915050565b60008060408385031215610c8557610c84610b2f565b5b600083013567ffffffffffffffff811115610ca357610ca2610b34565b5b610caf85828601610c40565b925050602083013567ffffffffffffffff811115610cd057610ccf610b34565b5b610cdc85828601610c40565b9150509250929050565b600060208284031215610cfc57610cfb610b2f565b5b600082013567ffffffffffffffff811115610d1a57610d19610b34565b5b610d2684828501610c40565b91505092915050565b6000819050919050565b610d4281610d2f565b82525050565b600082825260208201905092915050565b6000610d6482610a73565b610d6e8185610d48565b9350610d7e818560208601610a8f565b610d8781610ab9565b840191505092915050565b60008115159050919050565b610da781610d92565b82525050565b6000608083016000830151610dc56000860182610d39565b5060208301518482036020860152610ddd8282610d59565b91505060408301518482036040860152610df78282610d59565b9150506060830151610e0c6060860182610d9e565b508091505092915050565b60006020820190508181036000830152610e318184610dad565b905092915050565b600073ffffffffffffffffffffffffffffffffffffffff82169050919050565b6000610e6482610e39565b9050919050565b610e7481610e59565b82525050565b6000602082019050610e8f6000830184610e6b565b92915050565b600081519050919050565b600082825260208201905092915050565b6000819050602082019050919050565b6000608083016000830151610ed96000860182610d39565b5060208301518482036020860152610ef18282610d59565b91505060408301518482036040860152610f0b8282610d59565b9150506060830151610f206060860182610d9e565b508091505092915050565b6000610f378383610ec1565b905092915050565b6000602082019050919050565b6000610f5782610e95565b610f618185610ea0565b935083602082028501610f7385610eb1565b8060005b85811015610faf5784840389528151610f908582610f2b565b9450610f9b83610f3f565b925060208a01995050600181019050610f77565b50829750879550505050505092915050565b60006020820190508181036000830152610fdb8184610f4c565b905092915050565b610fec81610d2f565b8114610ff757600080fd5b50565b60008135905061100981610fe3565b92915050565b61101881610d92565b811461102357600080fd5b50565b6000813590506110358161100f565b92915050565b6000806000806080858703121561105557611054610b2f565b5b600061106387828801610ffa565b945050602085013567ffffffffffffffff81111561108457611083610b34565b5b61109087828801610c40565b935050604085013567ffffffffffffffff8111156110b1576110b0610b34565b5b6110bd87828801610c40565b92505060606110ce87828801611026565b91505092959194509250565b6110e381610e59565b81146110ee57600080fd5b50565b600081359050611100816110da565b92915050565b60006020828403121561111c5761111b610b2f565b5b600061112a848285016110f1565b91505092915050565b7f4e487b7100000000000000000000000000000000000000000000000000000000600052602260045260246000fd5b6000600282049050600182168061117a57607f821691505b60208210810361118d5761118c611133565b5b50919050565b7f4e487b7100000000000000000000000000000000000000000000000000000000600052601160045260246000fd5b60006111cd82610d2f565b91507fffffffffffffffffffffffffffffffffffffffffffffffffffffffffffffffff82036111ff576111fe611193565b5b600182019050919050565b60008190508160005260206000209050919050565b60006020601f8301049050919050565b600082821b905092915050565b60006008830261126c7fffffffffffffffffffffffffffffffffffffffffffffffffffffffffffffffff8261122f565b611276868361122f565b95508019841693508086168417925050509392505050565b6000819050919050565b60006112b36112ae6112a984610d2f565b61128e565b610d2f565b9050919050565b6000819050919050565b6112cd83611298565b6112e16112d9826112ba565b84845461123c565b825550505050565b600090565b6112f66112e9565b6113018184846112c4565b505050565b5b818110156113255761131a6000826112ee565b600181019050611307565b5050565b601f82111561136a5761133b8161120a565b6113448461121f565b81016020851015611353578190505b61136761135f8561121f565b830182611306565b50505b505050565b600082821c905092915050565b600061138d6000198460080261136f565b1980831691505092915050565b60006113a6838361137c565b9150826002028217905092915050565b6113bf82610a73565b67ffffffffffffffff8111156113d8576113d7610b43565b5b6113e28254611162565b6113ed828285611329565b600060209050601f831160018114611420576000841561140e578287015190505b611418858261139a565b865550611480565b601f19841661142e8661120a565b60005b8281101561145657848901518255600182019150602085019450602081019050611431565b86831015611473578489015161146f601f89168261137c565b8355505b6001600288020188555050505b505050505050565b600081905092915050565b600061149e82610a73565b6114a88185611488565b93506114b8818560208601610a8f565b80840191505092915050565b60006114d08284611493565b915081905092915050565b6000815490506114ea81611162565b9050919050565b8181036114ff5750506115d7565b611508826114db565b67ffffffffffffffff81111561152157611520610b43565b5b61152b8254611162565b611536828285611329565b6000601f8311600181146115655760008415611553578287015490505b61155d858261139a565b8655506115d0565b601f1984166115738761120a565b965061157e8661120a565b60005b828110156115a657848901548255600182019150600185019450602081019050611581565b868310156115c357848901546115bf601f89168261137c565b8355505b6001600288020188555050505b5050505050505b565b6115e281610d2f565b82525050565b60006060820190506115fd60008301866115d9565b818103602083015261160f8185610aca565b905081810360408301526116238184610aca565b9050949350505050565b600061163882610d2f565b915061164383610d2f565b925082820190508082111561165b5761165a611193565b5b92915050565b7f4e487b7100000000000000000000000000000000000000000000000000000000600052603260045260246000fd5b61169981610d92565b82525050565b60006080820190506116b460008301876115d9565b81810360208301526116c68186610aca565b905081810360408301526116da8185610aca565b90506116e96060830184611690565b95945050505050565b7f4e487b7100000000000000000000000000000000000000000000000000000000600052605160045260246000fdfea26469706673582212206d98eb367ab50fd66da0023ff6ad8168976f2506ec9d4a296466137cbfe33bb364736f6c634300081c0033",
  "linkReferences": {},
  "deployedLinkReferences": {}
}